{
  "contractName": "TokenSwap",
  "abi": [
    {
      "inputs": [],
      "stateMutability": "nonpayable",
      "type": "constructor"
    },
    {
      "inputs": [],
      "name": "myTokenAddress",
      "outputs": [
        {
          "internalType": "address",
          "name": "",
          "type": "address"
        }
      ],
      "stateMutability": "view",
      "type": "function",
      "constant": true
    },
    {
      "inputs": [],
      "name": "router",
      "outputs": [
        {
          "internalType": "contract IUniswapV2Router02",
          "name": "",
          "type": "address"
        }
      ],
      "stateMutability": "view",
      "type": "function",
      "constant": true
    },
    {
      "inputs": [],
      "name": "wethAddress",
      "outputs": [
        {
          "internalType": "address",
          "name": "",
          "type": "address"
        }
      ],
      "stateMutability": "view",
      "type": "function",
      "constant": true
    },
    {
      "inputs": [
        {
          "internalType": "address",
          "name": "tokenIn",
          "type": "address"
        },
        {
          "internalType": "uint256",
          "name": "amountIn",
          "type": "uint256"
        },
        {
          "internalType": "address",
          "name": "tokenOut",
          "type": "address"
        }
      ],
      "name": "swap",
      "outputs": [],
      "stateMutability": "payable",
      "type": "function",
      "payable": true
    },
    {
      "inputs": [],
      "name": "swapYourTokenForEth",
      "outputs": [],
      "stateMutability": "nonpayable",
      "type": "function"
    }
  ],
  "bytecode": "0x60806040527308bf78d9b3dff98a2ecb6e6a85e5d6e6694ce2bb6000806101000a81548173ffffffffffffffffffffffffffffffffffffffff021916908373ffffffffffffffffffffffffffffffffffffffff16021790555073b4fbf271143f4fbf7b91a5ded31805e42b2208d6600160006101000a81548173ffffffffffffffffffffffffffffffffffffffff021916908373ffffffffffffffffffffffffffffffffffffffff1602179055503480156100b957600080fd5b50737a250d5630b4cf539739df2c5dacb4c659f2488d600260006101000a81548173ffffffffffffffffffffffffffffffffffffffff021916908373ffffffffffffffffffffffffffffffffffffffff1602179055506105928061011e6000396000f3fe60806040526004361061004a5760003560e01c80634f0e0ef31461004f5780636d069a67146100a6578063c4a8599314610114578063e6f822ab1461012b578063f887ea4014610182575b600080fd5b34801561005b57600080fd5b506100646101d9565b604051808273ffffffffffffffffffffffffffffffffffffffff1673ffffffffffffffffffffffffffffffffffffffff16815260200191505060405180910390f35b610112600480360360608110156100bc57600080fd5b81019080803573ffffffffffffffffffffffffffffffffffffffff16906020019092919080359060200190929190803573ffffffffffffffffffffffffffffffffffffffff1690602001909291905050506101ff565b005b34801561012057600080fd5b506101296104ab565b005b34801561013757600080fd5b50610140610511565b604051808273ffffffffffffffffffffffffffffffffffffffff1673ffffffffffffffffffffffffffffffffffffffff16815260200191505060405180910390f35b34801561018e57600080fd5b50610197610536565b604051808273ffffffffffffffffffffffffffffffffffffffff1673ffffffffffffffffffffffffffffffffffffffff16815260200191505060405180910390f35b600160009054906101000a900473ffffffffffffffffffffffffffffffffffffffff1681565b606060026040519080825280602002602001820160405280156102315781602001602082028038833980820191505090505b509050838160008151811061024257fe5b602002602001019073ffffffffffffffffffffffffffffffffffffffff16908173ffffffffffffffffffffffffffffffffffffffff1681525050818160018151811061028a57fe5b602002602001019073ffffffffffffffffffffffffffffffffffffffff16908173ffffffffffffffffffffffffffffffffffffffff16815250506000620186a09050600260009054906101000a900473ffffffffffffffffffffffffffffffffffffffff1673ffffffffffffffffffffffffffffffffffffffff166318cbafe585838533426040518663ffffffff1660e01b815260040180868152602001858152602001806020018473ffffffffffffffffffffffffffffffffffffffff1673ffffffffffffffffffffffffffffffffffffffff168152602001838152602001828103825285818151815260200191508051906020019060200280838360005b838110156103a557808201518184015260208101905061038a565b505050509050019650505050505050600060405180830381600087803b1580156103ce57600080fd5b505af11580156103e2573d6000803e3d6000fd5b505050506040513d6000823e3d601f19601f82011682018060405250602081101561040c57600080fd5b810190808051604051939291908464010000000082111561042c57600080fd5b8382019150602082018581111561044257600080fd5b825186602082028301116401000000008211171561045f57600080fd5b8083526020830192505050908051906020019060200280838360005b8381101561049657808201518184015260208101905061047b565b50505050905001604052505050505050505050565b6000633b9aca00905060008060009054906101000a900473ffffffffffffffffffffffffffffffffffffffff1690506000600160009054906101000a900473ffffffffffffffffffffffffffffffffffffffff16905061050c8284836101ff565b505050565b6000809054906101000a900473ffffffffffffffffffffffffffffffffffffffff1681565b600260009054906101000a900473ffffffffffffffffffffffffffffffffffffffff168156fea26469706673582212200aa01ba51cedaa68f76a47b291e8668e8ab9926e13319df0e16b7bd24bc5b53c64736f6c63430006020033",
  "source": "// license: MIT\r\n\r\npragma solidity ^0.6.0;\r\n\r\nimport \"./IUniswapV2Router02.sol\";\r\n\r\ncontract TokenSwap {\r\n\r\n    // address of the token to be swapped\r\n    address public myTokenAddress = 0x08BF78D9b3Dff98A2eCb6E6a85e5d6e6694CE2bb;\r\n    address public wethAddress = 0xB4FBF271143F4FBf7B91A5ded31805e42b2208d6;\r\n\r\n    IUniswapV2Router02 public router;\r\n\r\n    constructor() public {\r\n        router = IUniswapV2Router02(0x7a250d5630B4cF539739dF2C5dAcb4c659F2488D);\r\n    }\r\n\r\n    function swap(address tokenIn, uint256 amountIn, address tokenOut) public payable {\r\n        address[] memory path = new address[](2);\r\n        path[0] = tokenIn;\r\n        path[1] = tokenOut;\r\n        uint256 amountOutMin = 100000;\r\n        router.swapExactTokensForETH(amountIn, amountOutMin, path, msg.sender, block.timestamp);\r\n    }\r\n\r\n    function swapYourTokenForEth() public { // swap 10 tokens from myTokenAddress for ETH\r\n        uint256 amountIn = 1000000000;\r\n        address tokenIn = myTokenAddress;\r\n        address tokenOut = wethAddress;\r\n        swap(tokenIn, amountIn, tokenOut);\r\n    }\r\n    \r\n}",
  "sourcePath": "C:\\Users\\hervi\\Documents\\Cours ESILV\\Decentralized Finance\\amm-101\\contracts\\tokenSwapper.sol",
  "compiler": {
    "name": "solc",
    "version": "0.6.2+commit.bacdbe57.Emscripten.clang"
  },
  "schemaVersion": "3.4.11",
  "updatedAt": "2023-01-27T17:35:27.819Z",
  "networkType": "ethereum",
  "devdoc": {
    "methods": {}
  },
  "userdoc": {
    "methods": {}
  }
}